{
  "contractName": "Raffle",
  "abi": [
    {
      "inputs": [
        {
          "internalType": "address",
          "name": "_linkTokenAddress",
          "type": "address"
        }
      ],
      "stateMutability": "nonpayable",
      "type": "constructor"
    },
    {
      "anonymous": false,
      "inputs": [
        {
          "indexed": true,
          "internalType": "bytes32",
          "name": "requestID",
          "type": "bytes32"
        }
      ],
      "name": "gotWinner",
      "type": "event"
    },
    {
      "anonymous": false,
      "inputs": [
        {
          "indexed": true,
          "internalType": "bytes32",
          "name": "requestID",
          "type": "bytes32"
        }
      ],
      "name": "requestedRaffle",
      "type": "event"
    },
    {
      "inputs": [
        {
          "internalType": "uint256",
          "name": "",
          "type": "uint256"
        }
      ],
      "name": "countToRInfos",
      "outputs": [
        {
          "internalType": "string",
          "name": "id",
          "type": "string"
        },
        {
          "internalType": "uint256",
          "name": "winner",
          "type": "uint256"
        },
        {
          "internalType": "uint256",
          "name": "part_count",
          "type": "uint256"
        }
      ],
      "stateMutability": "view",
      "type": "function",
      "constant": true
    },
    {
      "inputs": [],
      "name": "counter",
      "outputs": [
        {
          "internalType": "uint256",
          "name": "",
          "type": "uint256"
        }
      ],
      "stateMutability": "view",
      "type": "function",
      "constant": true
    },
    {
      "inputs": [],
      "name": "randomResult",
      "outputs": [
        {
          "internalType": "uint256",
          "name": "",
          "type": "uint256"
        }
      ],
      "stateMutability": "view",
      "type": "function",
      "constant": true
    },
    {
      "inputs": [
        {
          "internalType": "bytes32",
          "name": "requestId",
          "type": "bytes32"
        },
        {
          "internalType": "uint256",
          "name": "randomness",
          "type": "uint256"
        }
      ],
      "name": "rawFulfillRandomness",
      "outputs": [],
      "stateMutability": "nonpayable",
      "type": "function"
    },
    {
      "inputs": [
        {
          "internalType": "bytes32",
          "name": "",
          "type": "bytes32"
        }
      ],
      "name": "requestIDtoRInfos",
      "outputs": [
        {
          "internalType": "string",
          "name": "id",
          "type": "string"
        },
        {
          "internalType": "uint256",
          "name": "winner",
          "type": "uint256"
        },
        {
          "internalType": "uint256",
          "name": "part_count",
          "type": "uint256"
        }
      ],
      "stateMutability": "view",
      "type": "function",
      "constant": true
    },
    {
      "inputs": [
        {
          "internalType": "uint256",
          "name": "UserProvidSeed",
          "type": "uint256"
        },
        {
          "internalType": "string",
          "name": "_id",
          "type": "string"
        },
        {
          "internalType": "uint256",
          "name": "participant",
          "type": "uint256"
        }
      ],
      "name": "getWinner",
      "outputs": [
        {
          "internalType": "bytes32",
          "name": "",
          "type": "bytes32"
        }
      ],
      "stateMutability": "nonpayable",
      "type": "function"
    }
  ],
  "bytecode": "0x60c0604052600060035534801561001557600080fd5b50604051610cd3380380610cd38339818101604052602081101561003857600080fd5b810190808051906020019092919050505073dd3782915140c8f3b190b5d67eac6dc5760c46e9818173ffffffffffffffffffffffffffffffffffffffff1660a08173ffffffffffffffffffffffffffffffffffffffff1660601b815250508073ffffffffffffffffffffffffffffffffffffffff1660808173ffffffffffffffffffffffffffffffffffffffff1660601b8152505050507f6c3699283bda56ad74f6b855546325b68d482e983852a7a82979cc4807b641f460001b60048190555067016345785d8a00006005819055505060805160601c60a05160601c610b9c610137600039806104a452806106735250806106375250610b9c6000f3fe608060405234801561001057600080fd5b50600436106100625760003560e01c806342619f661461006757806361bc221a146100855780636ad93ac2146100a357806386d3f2d51461018657806394985ddd1461023b578063e43c484014610273575b600080fd5b61006f610328565b6040518082815260200191505060405180910390f35b61008d61032e565b6040518082815260200191505060405180910390f35b610170600480360360608110156100b957600080fd5b8101908080359060200190929190803590602001906401000000008111156100e057600080fd5b8201836020820111156100f257600080fd5b8035906020019184600183028401116401000000008311171561011457600080fd5b91908080601f016020809104026020016040519081016040528093929190818152602001838380828437600081840152601f19601f82011690508083019250505050505050919291929080359060200190929190505050610334565b6040518082815260200191505060405180910390f35b6101b26004803603602081101561019c57600080fd5b81019080803590602001909291905050506103e0565b6040518080602001848152602001838152602001828103825285818151815260200191508051906020019080838360005b838110156101fe5780820151818401526020810190506101e3565b50505050905090810190601f16801561022b5780820380516001836020036101000a031916815260200191505b5094505050505060405180910390f35b6102716004803603604081101561025157600080fd5b8101908080359060200190929190803590602001909291905050506104a2565b005b61029f6004803603602081101561028957600080fd5b8101908080359060200190929190505050610571565b6040518080602001848152602001838152602001828103825285818151815260200191508051906020019080838360005b838110156102eb5780820151818401526020810190506102d0565b50505050905090810190601f1680156103185780820380516001836020036101000a031916815260200191505b5094505050505060405180910390f35b60065481565b60035481565b60008061034660045460055487610633565b905060405180606001604052808581526020016000815260200184815250600160008381526020019081526020016000206000820151816000019080519060200190610393929190610a42565b506020820151816001015560408201518160020155905050807f5e2a07231ee7e165592f9b316246f62baf0fe6259f23b33c4dc8eff4fafd2fcd60405160405180910390a2509392505050565b6001602052806000526040600020600091509050806000018054600181600116156101000203166002900480601f01602080910402602001604051908101604052809291908181526020018280546001816001161561010002031660029004801561048c5780601f106104615761010080835404028352916020019161048c565b820191906000526020600020905b81548152906001019060200180831161046f57829003601f168201915b5050505050908060010154908060020154905083565b7f000000000000000000000000000000000000000000000000000000000000000073ffffffffffffffffffffffffffffffffffffffff163373ffffffffffffffffffffffffffffffffffffffff1614610563576040517f08c379a000000000000000000000000000000000000000000000000000000000815260040180806020018281038252601f8152602001807f4f6e6c7920565246436f6f7264696e61746f722063616e2066756c66696c6c0081525060200191505060405180910390fd5b61056d8282610828565b5050565b6002602052806000526040600020600091509050806000018054600181600116156101000203166002900480601f01602080910402602001604051908101604052809291908181526020018280546001816001161561010002031660029004801561061d5780601f106105f25761010080835404028352916020019161061d565b820191906000526020600020905b81548152906001019060200180831161060057829003601f168201915b5050505050908060010154908060020154905083565b60007f000000000000000000000000000000000000000000000000000000000000000073ffffffffffffffffffffffffffffffffffffffff16634000aea07f000000000000000000000000000000000000000000000000000000000000000085878660405160200180838152602001828152602001925050506040516020818303038152906040526040518463ffffffff1660e01b8152600401808473ffffffffffffffffffffffffffffffffffffffff16815260200183815260200180602001828103825283818151815260200191508051906020019080838360005b8381101561072c578082015181840152602081019050610711565b50505050905090810190601f1680156107595780820380516001836020036101000a031916815260200191505b50945050505050602060405180830381600087803b15801561077a57600080fd5b505af115801561078e573d6000803e3d6000fd5b505050506040513d60208110156107a457600080fd5b81019080805190602001909291905050505060006107d68584306000808a8152602001908152602001600020546108e9565b90506107fe60016000808881526020019081526020016000205461094d90919063ffffffff16565b6000808781526020019081526020016000208190555061081e85826109d5565b9150509392505050565b6001600083815260200190815260200160002060020154818161084757fe5b06600160008481526020019081526020016000206001018190555060016000838152602001908152602001600020600260006003548152602001908152602001600020600082018160000190805460018160011615610100020316600290046108b1929190610ac2565b5060018201548160010155600282015481600201559050506003600081548092919060010191905055506108e482610a0e565b505050565b600084848484604051602001808581526020018481526020018373ffffffffffffffffffffffffffffffffffffffff1681526020018281526020019450505050506040516020818303038152906040528051906020012060001c9050949350505050565b6000808284019050838110156109cb576040517f08c379a000000000000000000000000000000000000000000000000000000000815260040180806020018281038252601b8152602001807f536166654d6174683a206164646974696f6e206f766572666c6f77000000000081525060200191505060405180910390fd5b8091505092915050565b60008282604051602001808381526020018281526020019250505060405160208183030381529060405280519060200120905092915050565b6000817f65f429a60b2bb194f362d23473208682fafde72e3092a6535fa590b89bf3c54760405160405180910390a2919050565b828054600181600116156101000203166002900490600052602060002090601f016020900481019282601f10610a8357805160ff1916838001178555610ab1565b82800160010185558215610ab1579182015b82811115610ab0578251825591602001919060010190610a95565b5b509050610abe9190610b49565b5090565b828054600181600116156101000203166002900490600052602060002090601f016020900481019282601f10610afb5780548555610b38565b82800160010185558215610b3857600052602060002091601f016020900482015b82811115610b37578254825591600101919060010190610b1c565b5b509050610b459190610b49565b5090565b5b80821115610b62576000816000905550600101610b4a565b509056fea26469706673582212202e385023c3fccb7c6b4957d743aac0eab2318a136e322357f5ae23b110da0a6864736f6c634300060c0033",
  "immutableReferences": {
    "279": [
      {
        "length": 32,
        "start": 1591
      }
    ],
    "281": [
      {
        "length": 32,
        "start": 1188
      },
      {
        "length": 32,
        "start": 1651
      }
    ]
  },
  "source": "// SPDX-License-Identifier: MIT\r\npragma solidity ^0.6.12;\r\n\r\nimport \"@chainlink/contracts/src/v0.6/VRFConsumerBase.sol\";\r\n\r\ncontract Raffle is VRFConsumerBase {\r\n\r\n    struct RandomInfos{\r\n        string id;\r\n        uint256 winner;\r\n        uint256 part_count;\r\n\r\n    }\r\n\r\n    mapping (bytes32 => RandomInfos) public requestIDtoRInfos;\r\n    mapping (uint256 => RandomInfos) public countToRInfos;\r\n\r\n\r\n    uint256 public counter = 0;\r\n    bytes32 internal keyHash;\r\n    uint256 internal fee;\r\n\r\n    uint256 public randomResult;\r\n    event requestedRaffle( bytes32 indexed requestID);\r\n    event gotWinner(bytes32 indexed requestID);\r\n\r\n    /**\r\n     * Constructor inherits VRFConsumerBase\r\n     *\r\n     * Network: Kovan\r\n     * Chainlink VRF Coordinator address: 0xdD3782915140c8f3b190B5D67eAc6dc5760C46E9\r\n     * LINK token address:                0xa36085F69e2889c224210F603D836748e7dC0088\r\n     * Key Hash: 0x6c3699283bda56ad74f6b855546325b68d482e983852a7a82979cc4807b641f4\r\n     */\r\n    constructor(address _linkTokenAddress)\r\n        VRFConsumerBase(\r\n            0xdD3782915140c8f3b190B5D67eAc6dc5760C46E9, // VRF Coordinator\r\n            _linkTokenAddress  // LINK Token\r\n        ) public\r\n    {\r\n        keyHash = 0x6c3699283bda56ad74f6b855546325b68d482e983852a7a82979cc4807b641f4;\r\n        fee = 0.1 * 10 ** 18; // 0.1 LINK\r\n    }\r\n\r\n\r\n    function getWinner(uint256 UserProvidSeed, string memory _id, uint256 participant) public returns (bytes32){\r\n        bytes32 requestID = requestRandomness(keyHash,fee,UserProvidSeed);\r\n        requestIDtoRInfos[requestID] = RandomInfos(_id,0,participant);\r\n        emit requestedRaffle(requestID);\r\n    }\r\n\r\n\r\n    function gotWinnerEmitter( bytes32 requestID) internal returns (bytes32){\r\n        emit gotWinner(requestID);\r\n    }\r\n\r\n\r\n    /**\r\n     * Callback function used by VRF Coordinator\r\n     */\r\n    function fulfillRandomness(bytes32 requestId, uint256 randomness) internal override {\r\n        requestIDtoRInfos[requestId].winner = randomness % requestIDtoRInfos[requestId].part_count;\r\n        countToRInfos[counter] = requestIDtoRInfos[requestId];\r\n        counter++;\r\n        gotWinnerEmitter(requestId);\r\n    }\r\n\r\n\r\n\r\n\r\n}\r\n",
  "sourcePath": "C:/Users/whyno/documents/github/TrueRaffle2/contracts/Raffle.sol",
  "compiler": {
    "name": "solc",
    "version": "0.6.12+commit.27d51765.Emscripten.clang"
  },
  "schemaVersion": "3.3.4",
  "updatedAt": "2021-03-28T21:22:30.242Z",
  "networkType": "ethereum",
  "devdoc": {
    "kind": "dev",
    "methods": {},
    "version": 1
  },
  "userdoc": {
    "kind": "user",
    "methods": {
      "constructor": "Constructor inherits VRFConsumerBase Network: Kovan Chainlink VRF Coordinator address: 0xdD3782915140c8f3b190B5D67eAc6dc5760C46E9 LINK token address:                0xa36085F69e2889c224210F603D836748e7dC0088 Key Hash: 0x6c3699283bda56ad74f6b855546325b68d482e983852a7a82979cc4807b641f4"
    },
    "version": 1
  }
}