{
  "contractName": "RaffleGiveAway",
  "abi": [
    {
      "inputs": [
        {
          "internalType": "address",
          "name": "_linkTokenAddress",
          "type": "address"
        },
        {
          "internalType": "address",
          "name": "_trcAddress",
          "type": "address"
        }
      ],
      "stateMutability": "nonpayable",
      "type": "constructor"
    },
    {
      "inputs": [],
      "name": "TRC",
      "outputs": [
        {
          "internalType": "contract IERC20",
          "name": "",
          "type": "address"
        }
      ],
      "stateMutability": "view",
      "type": "function"
    },
    {
      "inputs": [],
      "name": "count",
      "outputs": [
        {
          "internalType": "uint256",
          "name": "",
          "type": "uint256"
        }
      ],
      "stateMutability": "view",
      "type": "function"
    },
    {
      "inputs": [
        {
          "internalType": "uint256",
          "name": "",
          "type": "uint256"
        }
      ],
      "name": "countToGiveAway",
      "outputs": [
        {
          "internalType": "string",
          "name": "name",
          "type": "string"
        },
        {
          "internalType": "address",
          "name": "owner",
          "type": "address"
        },
        {
          "internalType": "uint256",
          "name": "amount",
          "type": "uint256"
        },
        {
          "internalType": "address",
          "name": "currency",
          "type": "address"
        },
        {
          "internalType": "bytes32",
          "name": "cl_request_id",
          "type": "bytes32"
        },
        {
          "internalType": "uint256",
          "name": "winner",
          "type": "uint256"
        },
        {
          "internalType": "string",
          "name": "ipfs_hash",
          "type": "string"
        },
        {
          "internalType": "bool",
          "name": "on_going",
          "type": "bool"
        },
        {
          "internalType": "uint256",
          "name": "id",
          "type": "uint256"
        }
      ],
      "stateMutability": "view",
      "type": "function"
    },
    {
      "inputs": [
        {
          "internalType": "bytes32",
          "name": "requestId",
          "type": "bytes32"
        },
        {
          "internalType": "uint256",
          "name": "randomness",
          "type": "uint256"
        }
      ],
      "name": "rawFulfillRandomness",
      "outputs": [],
      "stateMutability": "nonpayable",
      "type": "function"
    },
    {
      "inputs": [
        {
          "internalType": "bytes32",
          "name": "",
          "type": "bytes32"
        }
      ],
      "name": "requestIDtoGiveAway",
      "outputs": [
        {
          "internalType": "string",
          "name": "name",
          "type": "string"
        },
        {
          "internalType": "address",
          "name": "owner",
          "type": "address"
        },
        {
          "internalType": "uint256",
          "name": "amount",
          "type": "uint256"
        },
        {
          "internalType": "address",
          "name": "currency",
          "type": "address"
        },
        {
          "internalType": "bytes32",
          "name": "cl_request_id",
          "type": "bytes32"
        },
        {
          "internalType": "uint256",
          "name": "winner",
          "type": "uint256"
        },
        {
          "internalType": "string",
          "name": "ipfs_hash",
          "type": "string"
        },
        {
          "internalType": "bool",
          "name": "on_going",
          "type": "bool"
        },
        {
          "internalType": "uint256",
          "name": "id",
          "type": "uint256"
        }
      ],
      "stateMutability": "view",
      "type": "function"
    },
    {
      "inputs": [
        {
          "internalType": "string",
          "name": "_name",
          "type": "string"
        },
        {
          "internalType": "uint256",
          "name": "_amount",
          "type": "uint256"
        },
        {
          "internalType": "address",
          "name": "_currency",
          "type": "address"
        },
        {
          "internalType": "string",
          "name": "_ipfs_hash",
          "type": "string"
        }
      ],
      "name": "createGiveAway",
      "outputs": [],
      "stateMutability": "nonpayable",
      "type": "function"
    },
    {
      "inputs": [
        {
          "internalType": "uint256",
          "name": "_id",
          "type": "uint256"
        }
      ],
      "name": "takePart",
      "outputs": [],
      "stateMutability": "nonpayable",
      "type": "function"
    },
    {
      "inputs": [
        {
          "internalType": "uint256",
          "name": "_id",
          "type": "uint256"
        },
        {
          "internalType": "uint256",
          "name": "UserProvidSeed",
          "type": "uint256"
        }
      ],
      "name": "resolveGiveAway",
      "outputs": [],
      "stateMutability": "nonpayable",
      "type": "function"
    },
    {
      "inputs": [
        {
          "internalType": "uint256",
          "name": "_id",
          "type": "uint256"
        }
      ],
      "name": "getGiveAwayPartSize",
      "outputs": [
        {
          "internalType": "uint256",
          "name": "",
          "type": "uint256"
        }
      ],
      "stateMutability": "view",
      "type": "function"
    },
    {
      "inputs": [
        {
          "internalType": "uint256",
          "name": "_id",
          "type": "uint256"
        },
        {
          "internalType": "uint256",
          "name": "_pos",
          "type": "uint256"
        }
      ],
      "name": "getGiveAwayPart",
      "outputs": [
        {
          "internalType": "address",
          "name": "",
          "type": "address"
        }
      ],
      "stateMutability": "view",
      "type": "function"
    }
  ],
  "bytecode": "0x60c0604052600060035534801561001557600080fd5b506040516123a93803806123a98339818101604052604081101561003857600080fd5b81019080805190602001909291908051906020019092919050505073dd3782915140c8f3b190b5d67eac6dc5760c46e9828173ffffffffffffffffffffffffffffffffffffffff1660a08173ffffffffffffffffffffffffffffffffffffffff1660601b815250508073ffffffffffffffffffffffffffffffffffffffff1660808173ffffffffffffffffffffffffffffffffffffffff1660601b8152505050507f6c3699283bda56ad74f6b855546325b68d482e983852a7a82979cc4807b641f460001b60048190555067016345785d8a000060058190555081600760006101000a81548173ffffffffffffffffffffffffffffffffffffffff021916908373ffffffffffffffffffffffffffffffffffffffff160217905550670de0b6b3a764000060068190555080600860006101000a81548173ffffffffffffffffffffffffffffffffffffffff021916908373ffffffffffffffffffffffffffffffffffffffff160217905550505060805160601c60a05160601c6121d66101d360003980610db5528061195952508061191d52506121d66000f3fe608060405234801561001057600080fd5b506004361061009e5760003560e01c806394985ddd1161006657806394985ddd14610301578063e849968814610339578063f0e65460146104ab578063f673269e14610627578063fe2f3258146106555761009e565b806306661abd146100a35780630f34a929146100c15780631b3aa8e41461023357806320baed6f1461029557806324adc63e146102cd575b600080fd5b6100ab610697565b6040518082815260200191505060405180910390f35b6100ed600480360360208110156100d757600080fd5b810190808035906020019092919050505061069d565b60405180806020018a73ffffffffffffffffffffffffffffffffffffffff1681526020018981526020018873ffffffffffffffffffffffffffffffffffffffff16815260200187815260200186815260200180602001851515815260200184815260200183810383528c818151815260200191508051906020019080838360005b8381101561018957808201518184015260208101905061016e565b50505050905090810190601f1680156101b65780820380516001836020036101000a031916815260200191505b50838103825286818151815260200191508051906020019080838360005b838110156101ef5780820151818401526020810190506101d4565b50505050905090810190601f16801561021c5780820380516001836020036101000a031916815260200191505b509b50505050505050505050505060405180910390f35b6102696004803603604081101561024957600080fd5b810190808035906020019092919080359060200190929190505050610868565b604051808273ffffffffffffffffffffffffffffffffffffffff16815260200191505060405180910390f35b6102cb600480360360408110156102ab57600080fd5b8101908080359060200190929190803590602001909291905050506109c3565b005b6102d5610d8d565b604051808273ffffffffffffffffffffffffffffffffffffffff16815260200191505060405180910390f35b6103376004803603604081101561031757600080fd5b810190808035906020019092919080359060200190929190505050610db3565b005b6103656004803603602081101561034f57600080fd5b8101908080359060200190929190505050610e82565b60405180806020018a73ffffffffffffffffffffffffffffffffffffffff1681526020018981526020018873ffffffffffffffffffffffffffffffffffffffff16815260200187815260200186815260200180602001851515815260200184815260200183810383528c818151815260200191508051906020019080838360005b838110156104015780820151818401526020810190506103e6565b50505050905090810190601f16801561042e5780820380516001836020036101000a031916815260200191505b50838103825286818151815260200191508051906020019080838360005b8381101561046757808201518184015260208101905061044c565b50505050905090810190601f1680156104945780820380516001836020036101000a031916815260200191505b509b50505050505050505050505060405180910390f35b610625600480360360808110156104c157600080fd5b81019080803590602001906401000000008111156104de57600080fd5b8201836020820111156104f057600080fd5b8035906020019184600183028401116401000000008311171561051257600080fd5b91908080601f016020809104026020016040519081016040528093929190818152602001838380828437600081840152601f19601f82011690508083019250505050505050919291929080359060200190929190803573ffffffffffffffffffffffffffffffffffffffff1690602001909291908035906020019064010000000081111561059f57600080fd5b8201836020820111156105b157600080fd5b803590602001918460018302840111640100000000831117156105d357600080fd5b91908080601f016020809104026020016040519081016040528093929190818152602001838380828437600081840152601f19601f82011690508083019250505050505050919291929050505061104d565b005b6106536004803603602081101561063d57600080fd5b81019080803590602001909291905050506116f8565b005b6106816004803603602081101561066b57600080fd5b810190808035906020019092919050505061187f565b6040518082815260200191505060405180910390f35b60035481565b6001602052806000526040600020600091509050806000018054600181600116156101000203166002900480601f0160208091040260200160405190810160405280929190818152602001828054600181600116156101000203166002900480156107495780601f1061071e57610100808354040283529160200191610749565b820191906000526020600020905b81548152906001019060200180831161072c57829003601f168201915b5050505050908060010160009054906101000a900473ffffffffffffffffffffffffffffffffffffffff16908060020154908060030160009054906101000a900473ffffffffffffffffffffffffffffffffffffffff1690806004015490806006015490806007018054600181600116156101000203166002900480601f0160208091040260200160405190810160405280929190818152602001828054600181600116156101000203166002900480156108455780601f1061081a57610100808354040283529160200191610845565b820191906000526020600020905b81548152906001019060200180831161082857829003601f168201915b5050505050908060080160009054906101000a900460ff16908060090154905089565b600060035483106108e1576040517f08c379a00000000000000000000000000000000000000000000000000000000081526004018080602001828103825260118152602001807f206e6f207375636820676976656177617900000000000000000000000000000081525060200191505060405180910390fd5b6002600084815260200190815260200160002060050180549050821061096f576040517f08c379a00000000000000000000000000000000000000000000000000000000081526004018080602001828103825260138152602001807f4e6f2073756368207061727469636970616e740000000000000000000000000081525060200191505060405180910390fd5b60026000848152602001908152602001600020600501828154811061099057fe5b9060005260206000200160009054906101000a900473ffffffffffffffffffffffffffffffffffffffff16905092915050565b6003548210610a3a576040517f08c379a00000000000000000000000000000000000000000000000000000000081526004018080602001828103825260118152602001807f206e6f207375636820676976656177617900000000000000000000000000000081525060200191505060405180910390fd5b6002600083815260200190815260200160002060080160009054906101000a900460ff16610ad0576040517f08c379a00000000000000000000000000000000000000000000000000000000081526004018080602001828103825260198152602001807f676976656177617920616c7265616479207265736f6c7665640000000000000081525060200191505060405180910390fd5b3373ffffffffffffffffffffffffffffffffffffffff166002600084815260200190815260200160002060010160009054906101000a900473ffffffffffffffffffffffffffffffffffffffff1673ffffffffffffffffffffffffffffffffffffffff1614610ba7576040517f08c379a00000000000000000000000000000000000000000000000000000000081526004018080602001828103825260188152602001807f6e6f7420796f757220676976656177617920626f69696969000000000000000081525060200191505060405180910390fd5b6000610bb860045460055484611919565b9050806002600085815260200190815260200160002060040181905550600260008481526020019081526020016000206001600083815260200190815260200160002060008201816000019080546001816001161561010002031660029004610c22929190611f65565b506001820160009054906101000a900473ffffffffffffffffffffffffffffffffffffffff168160010160006101000a81548173ffffffffffffffffffffffffffffffffffffffff021916908373ffffffffffffffffffffffffffffffffffffffff160217905550600282015481600201556003820160009054906101000a900473ffffffffffffffffffffffffffffffffffffffff168160030160006101000a81548173ffffffffffffffffffffffffffffffffffffffff021916908373ffffffffffffffffffffffffffffffffffffffff160217905550600482015481600401556005820181600501908054610d1b929190611fec565b506006820154816006015560078201816007019080546001816001161561010002031660029004610d4d929190611f65565b506008820160009054906101000a900460ff168160080160006101000a81548160ff02191690831515021790555060098201548160090155905050505050565b600860009054906101000a900473ffffffffffffffffffffffffffffffffffffffff1681565b7f000000000000000000000000000000000000000000000000000000000000000073ffffffffffffffffffffffffffffffffffffffff163373ffffffffffffffffffffffffffffffffffffffff1614610e74576040517f08c379a000000000000000000000000000000000000000000000000000000000815260040180806020018281038252601f8152602001807f4f6e6c7920565246436f6f7264696e61746f722063616e2066756c66696c6c0081525060200191505060405180910390fd5b610e7e8282611b0e565b5050565b6002602052806000526040600020600091509050806000018054600181600116156101000203166002900480601f016020809104026020016040519081016040528092919081815260200182805460018160011615610100020316600290048015610f2e5780601f10610f0357610100808354040283529160200191610f2e565b820191906000526020600020905b815481529060010190602001808311610f1157829003601f168201915b5050505050908060010160009054906101000a900473ffffffffffffffffffffffffffffffffffffffff16908060020154908060030160009054906101000a900473ffffffffffffffffffffffffffffffffffffffff1690806004015490806006015490806007018054600181600116156101000203166002900480601f01602080910402602001604051908101604052809291908181526020018280546001816001161561010002031660029004801561102a5780601f10610fff5761010080835404028352916020019161102a565b820191906000526020600020905b81548152906001019060200180831161100d57829003601f168201915b5050505050908060080160009054906101000a900460ff16908060090154905089565b600554600760009054906101000a900473ffffffffffffffffffffffffffffffffffffffff1673ffffffffffffffffffffffffffffffffffffffff1663dd62ed3e33306040518363ffffffff1660e01b8152600401808373ffffffffffffffffffffffffffffffffffffffff1681526020018273ffffffffffffffffffffffffffffffffffffffff1681526020019250505060206040518083038186803b1580156110f757600080fd5b505afa15801561110b573d6000803e3d6000fd5b505050506040513d602081101561112157600080fd5b810190808051906020019092919050505010156111a6576040517f08c379a000000000000000000000000000000000000000000000000000000000815260040180806020018281038252601d8152602001807f696e73756666696369656e7420616c6c6f77616e636520616d6f756e7400000081525060200191505060405180910390fd5b828273ffffffffffffffffffffffffffffffffffffffff1663dd62ed3e33306040518363ffffffff1660e01b8152600401808373ffffffffffffffffffffffffffffffffffffffff1681526020018273ffffffffffffffffffffffffffffffffffffffff1681526020019250505060206040518083038186803b15801561122c57600080fd5b505afa158015611240573d6000803e3d6000fd5b505050506040513d602081101561125657600080fd5b810190808051906020019092919050505010156112db576040517f08c379a000000000000000000000000000000000000000000000000000000000815260040180806020018281038252601d8152602001807f696e73756666696369656e7420616c6c6f77616e636520616d6f756e7400000081525060200191505060405180910390fd5b600760009054906101000a900473ffffffffffffffffffffffffffffffffffffffff1673ffffffffffffffffffffffffffffffffffffffff166323b872dd33306005546040518463ffffffff1660e01b8152600401808473ffffffffffffffffffffffffffffffffffffffff1681526020018373ffffffffffffffffffffffffffffffffffffffff1681526020018281526020019350505050602060405180830381600087803b15801561138e57600080fd5b505af11580156113a2573d6000803e3d6000fd5b505050506040513d60208110156113b857600080fd5b8101908080519060200190929190505050508173ffffffffffffffffffffffffffffffffffffffff166323b872dd3330866040518463ffffffff1660e01b8152600401808473ffffffffffffffffffffffffffffffffffffffff1681526020018373ffffffffffffffffffffffffffffffffffffffff1681526020018281526020019350505050602060405180830381600087803b15801561145957600080fd5b505af115801561146d573d6000803e3d6000fd5b505050506040513d602081101561148357600080fd5b81019080805190602001909291905050505060006040518061014001604052808681526020013373ffffffffffffffffffffffffffffffffffffffff1681526020018581526020018473ffffffffffffffffffffffffffffffffffffffff168152602001600080191681526020018280548060200260200160405190810160405280929190818152602001828054801561157257602002820191906000526020600020905b8160009054906101000a900473ffffffffffffffffffffffffffffffffffffffff1673ffffffffffffffffffffffffffffffffffffffff1681526020019060010190808311611528575b505050505081526020016000815260200183815260200160011515815260200160035481525060026000600354815260200190815260200160002060008201518160000190805190602001906115c992919061203e565b5060208201518160010160006101000a81548173ffffffffffffffffffffffffffffffffffffffff021916908373ffffffffffffffffffffffffffffffffffffffff1602179055506040820151816002015560608201518160030160006101000a81548173ffffffffffffffffffffffffffffffffffffffff021916908373ffffffffffffffffffffffffffffffffffffffff1602179055506080820151816004015560a08201518160050190805190602001906116889291906120be565b5060c0820151816006015560e08201518160070190805190602001906116af92919061203e565b506101008201518160080160006101000a81548160ff02191690831515021790555061012082015181600901559050506003600081548092919060010191905055505050505050565b600354811061176f576040517f08c379a00000000000000000000000000000000000000000000000000000000081526004018080602001828103825260118152602001807f206e6f207375636820676976656177617900000000000000000000000000000081525060200191505060405180910390fd5b6002600082815260200190815260200160002060080160009054906101000a900460ff16611805576040517f08c379a00000000000000000000000000000000000000000000000000000000081526004018080602001828103825260198152602001807f676976656177617920616c7265616479207265736f6c7665640000000000000081525060200191505060405180910390fd5b60026000828152602001908152602001600020600501339080600181540180825580915050600190039060005260206000200160009091909190916101000a81548173ffffffffffffffffffffffffffffffffffffffff021916908373ffffffffffffffffffffffffffffffffffffffff16021790555050565b600060035482106118f8576040517f08c379a00000000000000000000000000000000000000000000000000000000081526004018080602001828103825260118152602001807f206e6f207375636820676976656177617900000000000000000000000000000081525060200191505060405180910390fd5b60026000838152602001908152602001600020600501805490509050919050565b60007f000000000000000000000000000000000000000000000000000000000000000073ffffffffffffffffffffffffffffffffffffffff16634000aea07f000000000000000000000000000000000000000000000000000000000000000085878660405160200180838152602001828152602001925050506040516020818303038152906040526040518463ffffffff1660e01b8152600401808473ffffffffffffffffffffffffffffffffffffffff16815260200183815260200180602001828103825283818151815260200191508051906020019080838360005b83811015611a125780820151818401526020810190506119f7565b50505050905090810190601f168015611a3f5780820380516001836020036101000a031916815260200191505b50945050505050602060405180830381600087803b158015611a6057600080fd5b505af1158015611a74573d6000803e3d6000fd5b505050506040513d6020811015611a8a57600080fd5b8101908080519060200190929190505050506000611abc8584306000808a815260200190815260200160002054611e40565b9050611ae4600160008088815260200190815260200160002054611ea490919063ffffffff16565b60008087815260200190815260200160002081905550611b048582611f2c565b9150509392505050565b60016000838152602001908152602001600020600501805490508181611b3057fe5b0660016000848152602001908152602001600020600601819055506001600083815260200190815260200160002060030160009054906101000a900473ffffffffffffffffffffffffffffffffffffffff1673ffffffffffffffffffffffffffffffffffffffff1663a9059cbb3360016000868152602001908152602001600020600201546040518363ffffffff1660e01b8152600401808373ffffffffffffffffffffffffffffffffffffffff16815260200182815260200192505050602060405180830381600087803b158015611c0857600080fd5b505af1158015611c1c573d6000803e3d6000fd5b505050506040513d6020811015611c3257600080fd5b81019080805190602001909291905050505060006001600084815260200190815260200160002060080160006101000a81548160ff02191690831515021790555060016000838152602001908152602001600020600260006001600086815260200190815260200160002060090154815260200190815260200160002060008201816000019080546001816001161561010002031660029004611cd6929190611f65565b506001820160009054906101000a900473ffffffffffffffffffffffffffffffffffffffff168160010160006101000a81548173ffffffffffffffffffffffffffffffffffffffff021916908373ffffffffffffffffffffffffffffffffffffffff160217905550600282015481600201556003820160009054906101000a900473ffffffffffffffffffffffffffffffffffffffff168160030160006101000a81548173ffffffffffffffffffffffffffffffffffffffff021916908373ffffffffffffffffffffffffffffffffffffffff160217905550600482015481600401556005820181600501908054611dcf929190611fec565b506006820154816006015560078201816007019080546001816001161561010002031660029004611e01929190611f65565b506008820160009054906101000a900460ff168160080160006101000a81548160ff021916908315150217905550600982015481600901559050505050565b600084848484604051602001808581526020018481526020018373ffffffffffffffffffffffffffffffffffffffff1681526020018281526020019450505050506040516020818303038152906040528051906020012060001c9050949350505050565b600080828401905083811015611f22576040517f08c379a000000000000000000000000000000000000000000000000000000000815260040180806020018281038252601b8152602001807f536166654d6174683a206164646974696f6e206f766572666c6f77000000000081525060200191505060405180910390fd5b8091505092915050565b60008282604051602001808381526020018281526020019250505060405160208183030381529060405280519060200120905092915050565b828054600181600116156101000203166002900490600052602060002090601f016020900481019282601f10611f9e5780548555611fdb565b82800160010185558215611fdb57600052602060002091601f016020900482015b82811115611fda578254825591600101919060010190611fbf565b5b509050611fe89190612148565b5090565b82805482825590600052602060002090810192821561202d5760005260206000209182015b8281111561202c578254825591600101919060010190612011565b5b50905061203a9190612165565b5090565b828054600181600116156101000203166002900490600052602060002090601f016020900481019282601f1061207f57805160ff19168380011785556120ad565b828001600101855582156120ad579182015b828111156120ac578251825591602001919060010190612091565b5b5090506120ba9190612148565b5090565b828054828255906000526020600020908101928215612137579160200282015b828111156121365782518260006101000a81548173ffffffffffffffffffffffffffffffffffffffff021916908373ffffffffffffffffffffffffffffffffffffffff160217905550916020019190600101906120de565b5b5090506121449190612165565b5090565b5b80821115612161576000816000905550600101612149565b5090565b5b8082111561219c57600081816101000a81549073ffffffffffffffffffffffffffffffffffffffff021916905550600101612166565b509056fea2646970667358221220d114b05c16f3239a304c816da959fc97862bf96ca4f06cfdf864655952e8f10f64736f6c634300060c0033",
  "immutableReferences": {
    "469": [
      {
        "length": 32,
        "start": 6429
      }
    ],
    "471": [
      {
        "length": 32,
        "start": 3509
      },
      {
        "length": 32,
        "start": 6489
      }
    ]
  },
  "source": "// SPDX-License-Identifier: MIT\r\npragma solidity ^0.6.12;\r\n\r\n\r\nimport \"@chainlink/contracts/src/v0.6/VRFConsumerBase.sol\";\r\nimport \"@openzeppelin/contracts/token/ERC20/IERC20.sol\";\r\n\r\n\r\ncontract RaffleGiveAway is VRFConsumerBase{\r\n\r\n    struct GiveAway{\r\n\r\n        string name;\r\n        address owner;\r\n        uint256 amount;\r\n        address currency;\r\n        bytes32 cl_request_id;\r\n        address[] participants;\r\n        uint256 winner;\r\n        string ipfs_hash;\r\n        bool on_going;\r\n        uint256 id;\r\n\r\n    }\r\n\r\n    mapping (bytes32 => GiveAway) public requestIDtoGiveAway;\r\n    mapping (uint256 => GiveAway) public countToGiveAway;\r\n\r\n    uint256 public count = 0;\r\n    bytes32 internal keyHash;\r\n    uint256 internal fee;\r\n    uint256 internal coin;\r\n    address internal LinkToken;\r\n    IERC20 public TRC;\r\n\r\n\r\n\r\n    /**\r\n     * Constructor inherits VRFConsumerBase\r\n     *\r\n     * Network: Kovan\r\n     * Chainlink VRF Coordinator address: 0xdD3782915140c8f3b190B5D67eAc6dc5760C46E9\r\n     * LINK token address:                0xa36085F69e2889c224210F603D836748e7dC0088\r\n     * Key Hash: 0x6c3699283bda56ad74f6b855546325b68d482e983852a7a82979cc4807b641f4\r\n     */\r\n    constructor(address _linkTokenAddress, address _trcAddress)\r\n        VRFConsumerBase(\r\n            0xdD3782915140c8f3b190B5D67eAc6dc5760C46E9, // VRF Coordinator\r\n            _linkTokenAddress  // LINK Token\r\n        ) public\r\n    {\r\n        keyHash = 0x6c3699283bda56ad74f6b855546325b68d482e983852a7a82979cc4807b641f4;\r\n        fee = 0.1 * 10 ** 18; // 0.1 LINK\r\n        LinkToken = _linkTokenAddress;\r\n        coin = 1*10**18;\r\n        TRC = IERC20(_trcAddress);\r\n    }\r\n\r\n    function fulfillRandomness(bytes32 requestId, uint256 randomness) internal override {\r\n        requestIDtoGiveAway[requestId].winner = randomness % requestIDtoGiveAway[requestId].participants.length;\r\n        IERC20(requestIDtoGiveAway[requestId].currency).transfer(msg.sender, requestIDtoGiveAway[requestId].amount);\r\n        requestIDtoGiveAway[requestId].on_going = false;\r\n        countToGiveAway[requestIDtoGiveAway[requestId].id] = requestIDtoGiveAway[requestId];\r\n\r\n        // todo events\r\n    }\r\n\r\n\r\n    function createGiveAway (string memory _name, uint256 _amount, address _currency, string memory _ipfs_hash) public {\r\n        require(IERC20(LinkToken).allowance(msg.sender, address(this)) >= (fee), \"insufficient allowance amount\");\r\n        require(IERC20(_currency).allowance(msg.sender, address(this)) >= (_amount), \"insufficient allowance amount\");\r\n\r\n        IERC20(LinkToken).transferFrom(msg.sender, address(this),(fee));\r\n        IERC20(_currency).transferFrom(msg.sender, address(this),(_amount));\r\n        address[] storage temp;\r\n        countToGiveAway[count] = GiveAway(_name, msg.sender,_amount, _currency, \"\", temp, 0,_ipfs_hash, true,count);\r\n        count++;\r\n        //todo events\r\n\r\n    }\r\n\r\n\r\n    function takePart(uint256 _id) public {\r\n        require(_id < count, \" no such giveaway\");\r\n        require(countToGiveAway[_id].on_going, \"giveaway already resolved\");\r\n\r\n        countToGiveAway[_id].participants.push(msg.sender);\r\n        //todo events\r\n        \r\n    }\r\n\r\n    function resolveGiveAway(uint256 _id, uint256 UserProvidSeed) public {\r\n\r\n        require(_id < count, \" no such giveaway\");\r\n        require(countToGiveAway[_id].on_going, \"giveaway already resolved\");\r\n        require(countToGiveAway[_id].owner == msg.sender, \"not your giveaway boiiii\");\r\n\r\n        bytes32 requestID = requestRandomness(keyHash,fee,UserProvidSeed);\r\n        countToGiveAway[_id].cl_request_id = requestID;\r\n        requestIDtoGiveAway[requestID] = countToGiveAway[_id];\r\n        //todo events\r\n\r\n    }\r\n\r\n    function getGiveAwayPartSize(uint256 _id) public view returns(uint256){\r\n        require(_id < count, \" no such giveaway\");\r\n        return countToGiveAway[_id].participants.length;\r\n\r\n    }\r\n\r\n    function getGiveAwayPart(uint256 _id, uint256 _pos) public view returns(address){\r\n        require(_id < count, \" no such giveaway\");\r\n        require(_pos <countToGiveAway[_id].participants.length, \"No such participant\");\r\n        return countToGiveAway[_id].participants[_pos];\r\n\r\n    }\r\n\r\n\r\n\r\n\r\n} \r\n",
  "sourcePath": "C:/Users/whyno/documents/github/trueraffle2/contracts/GiveAway.sol",
  "compiler": {
    "name": "solc",
    "version": "0.6.12+commit.27d51765.Emscripten.clang"
  },
  "schemaVersion": "3.3.4",
  "updatedAt": "2021-05-12T16:20:54.579Z",
  "devdoc": {
    "kind": "dev",
    "methods": {},
    "version": 1
  },
  "userdoc": {
    "kind": "user",
    "methods": {
      "constructor": "Constructor inherits VRFConsumerBase Network: Kovan Chainlink VRF Coordinator address: 0xdD3782915140c8f3b190B5D67eAc6dc5760C46E9 LINK token address:                0xa36085F69e2889c224210F603D836748e7dC0088 Key Hash: 0x6c3699283bda56ad74f6b855546325b68d482e983852a7a82979cc4807b641f4"
    },
    "version": 1
  }
}