{
  "contractName": "RaffleGiveAway",
  "abi": [
    {
      "inputs": [
        {
          "internalType": "address",
          "name": "_linkTokenAddress",
          "type": "address"
        },
        {
          "internalType": "address",
          "name": "_trcAddress",
          "type": "address"
        }
      ],
      "stateMutability": "nonpayable",
      "type": "constructor"
    },
    {
      "inputs": [],
      "name": "TRC",
      "outputs": [
        {
          "internalType": "contract IERC20",
          "name": "",
          "type": "address"
        }
      ],
      "stateMutability": "view",
      "type": "function",
      "constant": true
    },
    {
      "inputs": [],
      "name": "count",
      "outputs": [
        {
          "internalType": "uint256",
          "name": "",
          "type": "uint256"
        }
      ],
      "stateMutability": "view",
      "type": "function",
      "constant": true
    },
    {
      "inputs": [
        {
          "internalType": "uint256",
          "name": "",
          "type": "uint256"
        }
      ],
      "name": "countToGiveAway",
      "outputs": [
        {
          "internalType": "string",
          "name": "name",
          "type": "string"
        },
        {
          "internalType": "address",
          "name": "owner",
          "type": "address"
        },
        {
          "internalType": "uint256",
          "name": "amount",
          "type": "uint256"
        },
        {
          "internalType": "address",
          "name": "currency",
          "type": "address"
        },
        {
          "internalType": "bytes32",
          "name": "cl_request_id",
          "type": "bytes32"
        },
        {
          "internalType": "uint256",
          "name": "winner",
          "type": "uint256"
        },
        {
          "internalType": "string",
          "name": "ipfs_hash",
          "type": "string"
        },
        {
          "internalType": "bool",
          "name": "on_going",
          "type": "bool"
        },
        {
          "internalType": "uint256",
          "name": "id",
          "type": "uint256"
        },
        {
          "internalType": "uint256",
          "name": "seed",
          "type": "uint256"
        }
      ],
      "stateMutability": "view",
      "type": "function",
      "constant": true
    },
    {
      "inputs": [
        {
          "internalType": "bytes32",
          "name": "requestId",
          "type": "bytes32"
        },
        {
          "internalType": "uint256",
          "name": "randomness",
          "type": "uint256"
        }
      ],
      "name": "rawFulfillRandomness",
      "outputs": [],
      "stateMutability": "nonpayable",
      "type": "function"
    },
    {
      "inputs": [
        {
          "internalType": "bytes32",
          "name": "",
          "type": "bytes32"
        }
      ],
      "name": "requestIDtoGiveAway",
      "outputs": [
        {
          "internalType": "string",
          "name": "name",
          "type": "string"
        },
        {
          "internalType": "address",
          "name": "owner",
          "type": "address"
        },
        {
          "internalType": "uint256",
          "name": "amount",
          "type": "uint256"
        },
        {
          "internalType": "address",
          "name": "currency",
          "type": "address"
        },
        {
          "internalType": "bytes32",
          "name": "cl_request_id",
          "type": "bytes32"
        },
        {
          "internalType": "uint256",
          "name": "winner",
          "type": "uint256"
        },
        {
          "internalType": "string",
          "name": "ipfs_hash",
          "type": "string"
        },
        {
          "internalType": "bool",
          "name": "on_going",
          "type": "bool"
        },
        {
          "internalType": "uint256",
          "name": "id",
          "type": "uint256"
        },
        {
          "internalType": "uint256",
          "name": "seed",
          "type": "uint256"
        }
      ],
      "stateMutability": "view",
      "type": "function",
      "constant": true
    },
    {
      "inputs": [
        {
          "internalType": "string",
          "name": "_name",
          "type": "string"
        },
        {
          "internalType": "uint256",
          "name": "_amount",
          "type": "uint256"
        },
        {
          "internalType": "address",
          "name": "_currency",
          "type": "address"
        },
        {
          "internalType": "string",
          "name": "_ipfs_hash",
          "type": "string"
        },
        {
          "internalType": "uint256",
          "name": "_seed",
          "type": "uint256"
        }
      ],
      "name": "createGiveAway",
      "outputs": [],
      "stateMutability": "nonpayable",
      "type": "function"
    },
    {
      "inputs": [
        {
          "internalType": "uint256",
          "name": "_id",
          "type": "uint256"
        }
      ],
      "name": "takePart",
      "outputs": [],
      "stateMutability": "nonpayable",
      "type": "function"
    },
    {
      "inputs": [
        {
          "internalType": "uint256",
          "name": "_id",
          "type": "uint256"
        }
      ],
      "name": "resolveGiveAway",
      "outputs": [],
      "stateMutability": "nonpayable",
      "type": "function"
    },
    {
      "inputs": [
        {
          "internalType": "uint256",
          "name": "_id",
          "type": "uint256"
        }
      ],
      "name": "getGiveAwayPartSize",
      "outputs": [
        {
          "internalType": "uint256",
          "name": "",
          "type": "uint256"
        }
      ],
      "stateMutability": "view",
      "type": "function",
      "constant": true
    },
    {
      "inputs": [
        {
          "internalType": "uint256",
          "name": "_id",
          "type": "uint256"
        },
        {
          "internalType": "uint256",
          "name": "_pos",
          "type": "uint256"
        }
      ],
      "name": "getGiveAwayPart",
      "outputs": [
        {
          "internalType": "address",
          "name": "",
          "type": "address"
        }
      ],
      "stateMutability": "view",
      "type": "function",
      "constant": true
    }
  ],
  "bytecode": "0x60c0604052600060035534801561001557600080fd5b506040516123fe3803806123fe8339818101604052604081101561003857600080fd5b81019080805190602001909291908051906020019092919050505073dd3782915140c8f3b190b5d67eac6dc5760c46e9828173ffffffffffffffffffffffffffffffffffffffff1660a08173ffffffffffffffffffffffffffffffffffffffff1660601b815250508073ffffffffffffffffffffffffffffffffffffffff1660808173ffffffffffffffffffffffffffffffffffffffff1660601b8152505050507f6c3699283bda56ad74f6b855546325b68d482e983852a7a82979cc4807b641f460001b60048190555067016345785d8a000060058190555081600760006101000a81548173ffffffffffffffffffffffffffffffffffffffff021916908373ffffffffffffffffffffffffffffffffffffffff160217905550670de0b6b3a764000060068190555080600860006101000a81548173ffffffffffffffffffffffffffffffffffffffff021916908373ffffffffffffffffffffffffffffffffffffffff160217905550505060805160601c60a05160601c61222b6101d36000398061103052806119a4525080611968525061222b6000f3fe608060405234801561001057600080fd5b506004361061009e5760003560e01c806394985ddd1161006657806394985ddd146102fe5780639f100d1814610336578063e8499688146104bc578063f673269e14610635578063fe2f3258146106635761009e565b806306661abd146100a35780630f34a929146100c15780631b3aa8e41461023a578063218388ec1461029c57806324adc63e146102ca575b600080fd5b6100ab6106a5565b6040518082815260200191505060405180910390f35b6100ed600480360360208110156100d757600080fd5b81019080803590602001909291905050506106ab565b60405180806020018b73ffffffffffffffffffffffffffffffffffffffff1681526020018a81526020018973ffffffffffffffffffffffffffffffffffffffff16815260200188815260200187815260200180602001861515815260200185815260200184815260200183810383528d818151815260200191508051906020019080838360005b8381101561018f578082015181840152602081019050610174565b50505050905090810190601f1680156101bc5780820380516001836020036101000a031916815260200191505b50838103825287818151815260200191508051906020019080838360005b838110156101f55780820151818401526020810190506101da565b50505050905090810190601f1680156102225780820380516001836020036101000a031916815260200191505b509c5050505050505050505050505060405180910390f35b6102706004803603604081101561025057600080fd5b81019080803590602001909291908035906020019092919050505061087c565b604051808273ffffffffffffffffffffffffffffffffffffffff16815260200191505060405180910390f35b6102c8600480360360208110156102b257600080fd5b81019080803590602001909291905050506109d7565b005b6102d2611008565b604051808273ffffffffffffffffffffffffffffffffffffffff16815260200191505060405180910390f35b6103346004803603604081101561031457600080fd5b81019080803590602001909291908035906020019092919050505061102e565b005b6104ba600480360360a081101561034c57600080fd5b810190808035906020019064010000000081111561036957600080fd5b82018360208201111561037b57600080fd5b8035906020019184600183028401116401000000008311171561039d57600080fd5b91908080601f016020809104026020016040519081016040528093929190818152602001838380828437600081840152601f19601f82011690508083019250505050505050919291929080359060200190929190803573ffffffffffffffffffffffffffffffffffffffff1690602001909291908035906020019064010000000081111561042a57600080fd5b82018360208201111561043c57600080fd5b8035906020019184600183028401116401000000008311171561045e57600080fd5b91908080601f016020809104026020016040519081016040528093929190818152602001838380828437600081840152601f19601f820116905080830192505050505050509192919290803590602001909291905050506110fd565b005b6104e8600480360360208110156104d257600080fd5b8101908080359060200190929190505050611572565b60405180806020018b73ffffffffffffffffffffffffffffffffffffffff1681526020018a81526020018973ffffffffffffffffffffffffffffffffffffffff16815260200188815260200187815260200180602001861515815260200185815260200184815260200183810383528d818151815260200191508051906020019080838360005b8381101561058a57808201518184015260208101905061056f565b50505050905090810190601f1680156105b75780820380516001836020036101000a031916815260200191505b50838103825287818151815260200191508051906020019080838360005b838110156105f05780820151818401526020810190506105d5565b50505050905090810190601f16801561061d5780820380516001836020036101000a031916815260200191505b509c5050505050505050505050505060405180910390f35b6106616004803603602081101561064b57600080fd5b8101908080359060200190929190505050611743565b005b61068f6004803603602081101561067957600080fd5b81019080803590602001909291905050506118ca565b6040518082815260200191505060405180910390f35b60035481565b6001602052806000526040600020600091509050806000018054600181600116156101000203166002900480601f0160208091040260200160405190810160405280929190818152602001828054600181600116156101000203166002900480156107575780601f1061072c57610100808354040283529160200191610757565b820191906000526020600020905b81548152906001019060200180831161073a57829003601f168201915b5050505050908060010160009054906101000a900473ffffffffffffffffffffffffffffffffffffffff16908060020154908060030160009054906101000a900473ffffffffffffffffffffffffffffffffffffffff1690806004015490806006015490806007018054600181600116156101000203166002900480601f0160208091040260200160405190810160405280929190818152602001828054600181600116156101000203166002900480156108535780601f1061082857610100808354040283529160200191610853565b820191906000526020600020905b81548152906001019060200180831161083657829003601f168201915b5050505050908060080160009054906101000a900460ff169080600901549080600a015490508a565b600060035483106108f5576040517f08c379a00000000000000000000000000000000000000000000000000000000081526004018080602001828103825260118152602001807f206e6f207375636820676976656177617900000000000000000000000000000081525060200191505060405180910390fd5b60026000848152602001908152602001600020600501805490508210610983576040517f08c379a00000000000000000000000000000000000000000000000000000000081526004018080602001828103825260138152602001807f4e6f2073756368207061727469636970616e740000000000000000000000000081525060200191505060405180910390fd5b6002600084815260200190815260200160002060050182815481106109a457fe5b9060005260206000200160009054906101000a900473ffffffffffffffffffffffffffffffffffffffff16905092915050565b600554600760009054906101000a900473ffffffffffffffffffffffffffffffffffffffff1673ffffffffffffffffffffffffffffffffffffffff1663dd62ed3e33306040518363ffffffff1660e01b8152600401808373ffffffffffffffffffffffffffffffffffffffff1681526020018273ffffffffffffffffffffffffffffffffffffffff1681526020019250505060206040518083038186803b158015610a8157600080fd5b505afa158015610a95573d6000803e3d6000fd5b505050506040513d6020811015610aab57600080fd5b81019080805190602001909291905050501015610b30576040517f08c379a000000000000000000000000000000000000000000000000000000000815260040180806020018281038252601d8152602001807f696e73756666696369656e7420616c6c6f77616e636520616d6f756e7400000081525060200191505060405180910390fd5b600760009054906101000a900473ffffffffffffffffffffffffffffffffffffffff1673ffffffffffffffffffffffffffffffffffffffff166323b872dd33306005546040518463ffffffff1660e01b8152600401808473ffffffffffffffffffffffffffffffffffffffff1681526020018373ffffffffffffffffffffffffffffffffffffffff1681526020018281526020019350505050602060405180830381600087803b158015610be357600080fd5b505af1158015610bf7573d6000803e3d6000fd5b505050506040513d6020811015610c0d57600080fd5b8101908080519060200190929190505050506003548110610c96576040517f08c379a00000000000000000000000000000000000000000000000000000000081526004018080602001828103825260118152602001807f206e6f207375636820676976656177617900000000000000000000000000000081525060200191505060405180910390fd5b6002600082815260200190815260200160002060080160009054906101000a900460ff16610d2c576040517f08c379a00000000000000000000000000000000000000000000000000000000081526004018080602001828103825260198152602001807f676976656177617920616c7265616479207265736f6c7665640000000000000081525060200191505060405180910390fd5b3373ffffffffffffffffffffffffffffffffffffffff166002600083815260200190815260200160002060010160009054906101000a900473ffffffffffffffffffffffffffffffffffffffff1673ffffffffffffffffffffffffffffffffffffffff1614610e03576040517f08c379a00000000000000000000000000000000000000000000000000000000081526004018080602001828103825260188152602001807f6e6f7420796f757220676976656177617920626f69696969000000000000000081525060200191505060405180910390fd5b6000610e2a60045460055460026000868152602001908152602001600020600a0154611964565b9050806002600084815260200190815260200160002060040181905550600260008381526020019081526020016000206001600083815260200190815260200160002060008201816000019080546001816001161561010002031660029004610e94929190611fba565b506001820160009054906101000a900473ffffffffffffffffffffffffffffffffffffffff168160010160006101000a81548173ffffffffffffffffffffffffffffffffffffffff021916908373ffffffffffffffffffffffffffffffffffffffff160217905550600282015481600201556003820160009054906101000a900473ffffffffffffffffffffffffffffffffffffffff168160030160006101000a81548173ffffffffffffffffffffffffffffffffffffffff021916908373ffffffffffffffffffffffffffffffffffffffff160217905550600482015481600401556005820181600501908054610f8d929190612041565b506006820154816006015560078201816007019080546001816001161561010002031660029004610fbf929190611fba565b506008820160009054906101000a900460ff168160080160006101000a81548160ff02191690831515021790555060098201548160090155600a82015481600a01559050505050565b600860009054906101000a900473ffffffffffffffffffffffffffffffffffffffff1681565b7f000000000000000000000000000000000000000000000000000000000000000073ffffffffffffffffffffffffffffffffffffffff163373ffffffffffffffffffffffffffffffffffffffff16146110ef576040517f08c379a000000000000000000000000000000000000000000000000000000000815260040180806020018281038252601f8152602001807f4f6e6c7920565246436f6f7264696e61746f722063616e2066756c66696c6c0081525060200191505060405180910390fd5b6110f98282611b59565b5050565b838373ffffffffffffffffffffffffffffffffffffffff1663dd62ed3e33306040518363ffffffff1660e01b8152600401808373ffffffffffffffffffffffffffffffffffffffff1681526020018273ffffffffffffffffffffffffffffffffffffffff1681526020019250505060206040518083038186803b15801561118357600080fd5b505afa158015611197573d6000803e3d6000fd5b505050506040513d60208110156111ad57600080fd5b81019080805190602001909291905050501015611232576040517f08c379a000000000000000000000000000000000000000000000000000000000815260040180806020018281038252601d8152602001807f696e73756666696369656e7420616c6c6f77616e636520616d6f756e7400000081525060200191505060405180910390fd5b8273ffffffffffffffffffffffffffffffffffffffff166323b872dd3330876040518463ffffffff1660e01b8152600401808473ffffffffffffffffffffffffffffffffffffffff1681526020018373ffffffffffffffffffffffffffffffffffffffff1681526020018281526020019350505050602060405180830381600087803b1580156112c157600080fd5b505af11580156112d5573d6000803e3d6000fd5b505050506040513d60208110156112eb57600080fd5b81019080805190602001909291905050505060006040518061016001604052808781526020013373ffffffffffffffffffffffffffffffffffffffff1681526020018681526020018573ffffffffffffffffffffffffffffffffffffffff16815260200160008019168152602001828054806020026020016040519081016040528092919081815260200182805480156113da57602002820191906000526020600020905b8160009054906101000a900473ffffffffffffffffffffffffffffffffffffffff1673ffffffffffffffffffffffffffffffffffffffff1681526020019060010190808311611390575b50505050508152602001600081526020018481526020016001151581526020016003548152602001838152506002600060035481526020019081526020016000206000820151816000019080519060200190611437929190612093565b5060208201518160010160006101000a81548173ffffffffffffffffffffffffffffffffffffffff021916908373ffffffffffffffffffffffffffffffffffffffff1602179055506040820151816002015560608201518160030160006101000a81548173ffffffffffffffffffffffffffffffffffffffff021916908373ffffffffffffffffffffffffffffffffffffffff1602179055506080820151816004015560a08201518160050190805190602001906114f6929190612113565b5060c0820151816006015560e082015181600701908051906020019061151d929190612093565b506101008201518160080160006101000a81548160ff021916908315150217905550610120820151816009015561014082015181600a0155905050600360008154809291906001019190505550505050505050565b6002602052806000526040600020600091509050806000018054600181600116156101000203166002900480601f01602080910402602001604051908101604052809291908181526020018280546001816001161561010002031660029004801561161e5780601f106115f35761010080835404028352916020019161161e565b820191906000526020600020905b81548152906001019060200180831161160157829003601f168201915b5050505050908060010160009054906101000a900473ffffffffffffffffffffffffffffffffffffffff16908060020154908060030160009054906101000a900473ffffffffffffffffffffffffffffffffffffffff1690806004015490806006015490806007018054600181600116156101000203166002900480601f01602080910402602001604051908101604052809291908181526020018280546001816001161561010002031660029004801561171a5780601f106116ef5761010080835404028352916020019161171a565b820191906000526020600020905b8154815290600101906020018083116116fd57829003601f168201915b5050505050908060080160009054906101000a900460ff169080600901549080600a015490508a565b60035481106117ba576040517f08c379a00000000000000000000000000000000000000000000000000000000081526004018080602001828103825260118152602001807f206e6f207375636820676976656177617900000000000000000000000000000081525060200191505060405180910390fd5b6002600082815260200190815260200160002060080160009054906101000a900460ff16611850576040517f08c379a00000000000000000000000000000000000000000000000000000000081526004018080602001828103825260198152602001807f676976656177617920616c7265616479207265736f6c7665640000000000000081525060200191505060405180910390fd5b60026000828152602001908152602001600020600501339080600181540180825580915050600190039060005260206000200160009091909190916101000a81548173ffffffffffffffffffffffffffffffffffffffff021916908373ffffffffffffffffffffffffffffffffffffffff16021790555050565b60006003548210611943576040517f08c379a00000000000000000000000000000000000000000000000000000000081526004018080602001828103825260118152602001807f206e6f207375636820676976656177617900000000000000000000000000000081525060200191505060405180910390fd5b60026000838152602001908152602001600020600501805490509050919050565b60007f000000000000000000000000000000000000000000000000000000000000000073ffffffffffffffffffffffffffffffffffffffff16634000aea07f000000000000000000000000000000000000000000000000000000000000000085878660405160200180838152602001828152602001925050506040516020818303038152906040526040518463ffffffff1660e01b8152600401808473ffffffffffffffffffffffffffffffffffffffff16815260200183815260200180602001828103825283818151815260200191508051906020019080838360005b83811015611a5d578082015181840152602081019050611a42565b50505050905090810190601f168015611a8a5780820380516001836020036101000a031916815260200191505b50945050505050602060405180830381600087803b158015611aab57600080fd5b505af1158015611abf573d6000803e3d6000fd5b505050506040513d6020811015611ad557600080fd5b8101908080519060200190929190505050506000611b078584306000808a815260200190815260200160002054611e95565b9050611b2f600160008088815260200190815260200160002054611ef990919063ffffffff16565b60008087815260200190815260200160002081905550611b4f8582611f81565b9150509392505050565b60016000838152602001908152602001600020600501805490508181611b7b57fe5b0660016000848152602001908152602001600020600601819055506001600083815260200190815260200160002060030160009054906101000a900473ffffffffffffffffffffffffffffffffffffffff1673ffffffffffffffffffffffffffffffffffffffff1663a9059cbb3360016000868152602001908152602001600020600201546040518363ffffffff1660e01b8152600401808373ffffffffffffffffffffffffffffffffffffffff16815260200182815260200192505050602060405180830381600087803b158015611c5357600080fd5b505af1158015611c67573d6000803e3d6000fd5b505050506040513d6020811015611c7d57600080fd5b81019080805190602001909291905050505060006001600084815260200190815260200160002060080160006101000a81548160ff02191690831515021790555060016000838152602001908152602001600020600260006001600086815260200190815260200160002060090154815260200190815260200160002060008201816000019080546001816001161561010002031660029004611d21929190611fba565b506001820160009054906101000a900473ffffffffffffffffffffffffffffffffffffffff168160010160006101000a81548173ffffffffffffffffffffffffffffffffffffffff021916908373ffffffffffffffffffffffffffffffffffffffff160217905550600282015481600201556003820160009054906101000a900473ffffffffffffffffffffffffffffffffffffffff168160030160006101000a81548173ffffffffffffffffffffffffffffffffffffffff021916908373ffffffffffffffffffffffffffffffffffffffff160217905550600482015481600401556005820181600501908054611e1a929190612041565b506006820154816006015560078201816007019080546001816001161561010002031660029004611e4c929190611fba565b506008820160009054906101000a900460ff168160080160006101000a81548160ff02191690831515021790555060098201548160090155600a82015481600a01559050505050565b600084848484604051602001808581526020018481526020018373ffffffffffffffffffffffffffffffffffffffff1681526020018281526020019450505050506040516020818303038152906040528051906020012060001c9050949350505050565b600080828401905083811015611f77576040517f08c379a000000000000000000000000000000000000000000000000000000000815260040180806020018281038252601b8152602001807f536166654d6174683a206164646974696f6e206f766572666c6f77000000000081525060200191505060405180910390fd5b8091505092915050565b60008282604051602001808381526020018281526020019250505060405160208183030381529060405280519060200120905092915050565b828054600181600116156101000203166002900490600052602060002090601f016020900481019282601f10611ff35780548555612030565b8280016001018555821561203057600052602060002091601f016020900482015b8281111561202f578254825591600101919060010190612014565b5b50905061203d919061219d565b5090565b8280548282559060005260206000209081019282156120825760005260206000209182015b82811115612081578254825591600101919060010190612066565b5b50905061208f91906121ba565b5090565b828054600181600116156101000203166002900490600052602060002090601f016020900481019282601f106120d457805160ff1916838001178555612102565b82800160010185558215612102579182015b828111156121015782518255916020019190600101906120e6565b5b50905061210f919061219d565b5090565b82805482825590600052602060002090810192821561218c579160200282015b8281111561218b5782518260006101000a81548173ffffffffffffffffffffffffffffffffffffffff021916908373ffffffffffffffffffffffffffffffffffffffff16021790555091602001919060010190612133565b5b50905061219991906121ba565b5090565b5b808211156121b657600081600090555060010161219e565b5090565b5b808211156121f157600081816101000a81549073ffffffffffffffffffffffffffffffffffffffff0219169055506001016121bb565b509056fea26469706673582212208266c8a0f7b25811fcde2e6dc55cb21b1a375b34dc10baff7bf8919c30df811964736f6c634300060c0033",
  "immutableReferences": {
    "475": [
      {
        "length": 32,
        "start": 6504
      }
    ],
    "477": [
      {
        "length": 32,
        "start": 4144
      },
      {
        "length": 32,
        "start": 6564
      }
    ]
  },
  "source": "// SPDX-License-Identifier: MIT\r\npragma solidity ^0.6.12;\r\n\r\n\r\nimport \"@chainlink/contracts/src/v0.6/VRFConsumerBase.sol\";\r\nimport \"@openzeppelin/contracts/token/ERC20/IERC20.sol\";\r\n\r\n\r\ncontract RaffleGiveAway is VRFConsumerBase{\r\n\r\n    struct GiveAway{\r\n\r\n        string name;\r\n        address owner;\r\n        uint256 amount;\r\n        address currency;\r\n        bytes32 cl_request_id;\r\n        address[] participants;\r\n        uint256 winner;\r\n        string ipfs_hash;\r\n        bool on_going;\r\n        uint256 id;\r\n        uint256 seed;\r\n\r\n    }\r\n\r\n    mapping (bytes32 => GiveAway) public requestIDtoGiveAway;\r\n    mapping (uint256 => GiveAway) public countToGiveAway;\r\n\r\n    uint256 public count = 0;\r\n    bytes32 internal keyHash;\r\n    uint256 internal fee;\r\n    uint256 internal coin;\r\n    address internal LinkToken;\r\n    IERC20 public TRC;\r\n\r\n\r\n\r\n    /**\r\n     * Constructor inherits VRFConsumerBase\r\n     *\r\n     * Network: Kovan\r\n     * Chainlink VRF Coordinator address: 0xdD3782915140c8f3b190B5D67eAc6dc5760C46E9\r\n     * LINK token address:                0xa36085F69e2889c224210F603D836748e7dC0088\r\n     * Key Hash: 0x6c3699283bda56ad74f6b855546325b68d482e983852a7a82979cc4807b641f4\r\n     */\r\n    constructor(address _linkTokenAddress, address _trcAddress)\r\n        VRFConsumerBase(\r\n            0xdD3782915140c8f3b190B5D67eAc6dc5760C46E9, // VRF Coordinator\r\n            _linkTokenAddress  // LINK Token\r\n        ) public\r\n    {\r\n        keyHash = 0x6c3699283bda56ad74f6b855546325b68d482e983852a7a82979cc4807b641f4;\r\n        fee = 0.1 * 10 ** 18; // 0.1 LINK\r\n        LinkToken = _linkTokenAddress;\r\n        coin = 1*10**18;\r\n        TRC = IERC20(_trcAddress);\r\n    }\r\n\r\n    function fulfillRandomness(bytes32 requestId, uint256 randomness) internal override {\r\n        requestIDtoGiveAway[requestId].winner = randomness % requestIDtoGiveAway[requestId].participants.length;\r\n        IERC20(requestIDtoGiveAway[requestId].currency).transfer(msg.sender, requestIDtoGiveAway[requestId].amount);\r\n        requestIDtoGiveAway[requestId].on_going = false;\r\n        countToGiveAway[requestIDtoGiveAway[requestId].id] = requestIDtoGiveAway[requestId];\r\n\r\n        // todo events\r\n    }\r\n\r\n\r\n    function createGiveAway (string memory _name, uint256 _amount, address _currency, string memory _ipfs_hash, uint256 _seed) public {\r\n        require(IERC20(_currency).allowance(msg.sender, address(this)) >= (_amount), \"insufficient allowance amount\");\r\n        IERC20(_currency).transferFrom(msg.sender, address(this),(_amount));\r\n        \r\n        address[] storage temp;\r\n        countToGiveAway[count] = GiveAway(_name, msg.sender,_amount, _currency, \"\", temp, 0,_ipfs_hash, true,count,_seed);\r\n        count++;\r\n        //todo events\r\n\r\n    }\r\n\r\n\r\n    function takePart(uint256 _id) public {\r\n        require(_id < count, \" no such giveaway\");\r\n        require(countToGiveAway[_id].on_going, \"giveaway already resolved\");\r\n\r\n        countToGiveAway[_id].participants.push(msg.sender);\r\n        //todo events\r\n        \r\n    }\r\n\r\n    function resolveGiveAway(uint256 _id) public {\r\n        require(IERC20(LinkToken).allowance(msg.sender, address(this)) >= (fee), \"insufficient allowance amount\");\r\n        IERC20(LinkToken).transferFrom(msg.sender, address(this),(fee));\r\n        require(_id < count, \" no such giveaway\");\r\n        require(countToGiveAway[_id].on_going, \"giveaway already resolved\");\r\n        require(countToGiveAway[_id].owner == msg.sender, \"not your giveaway boiiii\");\r\n\r\n        bytes32 requestID = requestRandomness(keyHash,fee,countToGiveAway[_id].seed);\r\n        countToGiveAway[_id].cl_request_id = requestID;\r\n        requestIDtoGiveAway[requestID] = countToGiveAway[_id];\r\n        //todo events\r\n\r\n    }\r\n\r\n    function getGiveAwayPartSize(uint256 _id) public view returns(uint256){\r\n        require(_id < count, \" no such giveaway\");\r\n        return countToGiveAway[_id].participants.length;\r\n\r\n    }\r\n\r\n    function getGiveAwayPart(uint256 _id, uint256 _pos) public view returns(address){\r\n        require(_id < count, \" no such giveaway\");\r\n        require(_pos <countToGiveAway[_id].participants.length, \"No such participant\");\r\n        return countToGiveAway[_id].participants[_pos];\r\n\r\n    }\r\n\r\n\r\n\r\n\r\n} \r\n",
  "sourcePath": "C:/Users/whyno/documents/github/trueraffle2/contracts/GiveAway.sol",
  "compiler": {
    "name": "solc",
    "version": "0.6.12+commit.27d51765.Emscripten.clang"
  },
  "schemaVersion": "3.3.4",
  "updatedAt": "2021-05-21T14:08:09.498Z",
  "networkType": "ethereum",
  "devdoc": {
    "kind": "dev",
    "methods": {},
    "version": 1
  },
  "userdoc": {
    "kind": "user",
    "methods": {
      "constructor": "Constructor inherits VRFConsumerBase Network: Kovan Chainlink VRF Coordinator address: 0xdD3782915140c8f3b190B5D67eAc6dc5760C46E9 LINK token address:                0xa36085F69e2889c224210F603D836748e7dC0088 Key Hash: 0x6c3699283bda56ad74f6b855546325b68d482e983852a7a82979cc4807b641f4"
    },
    "version": 1
  }
}